:020000040800F2
:10000000D00400206D1A0008651800086718000861
:10001000691800086B1800086D180008000000003F
:10002000000000000000000000000000711800083F
:100030006F18000800000000731800087518000809
:1000400077180008791800087B1800087D18000848
:100050009518000897180008991800089B180008C0
:100060009D1800089F180008A1180008A318000890
:10007000A5180008A7180008A9180008AB18000860
:10008000AD180008AF180008B1180008B318000830
:10009000B5180008B7180008B9180008BB18000800
:1000A000BD180008BF180008C1180008C3180008D0
:1000B000C5180008ED180008051900080719000800
:1000C000091900080B1900080D1900080F1900087C
:1000D0002B1900082D1900086D1900086F19000868
:1000E0007119000899190008BD190008BF19000806
:1000F000C1190008C3190008C5190008C71900086C
:10010000C9190008CB190008CD190008CF1900083B
:10011000D1190008D3190008D5190008D71900080B
:10012000D9190008DB190008DD190008DF190008DB
:1001300080B50C220021C74800F090F9C548002185
:1001400001720321022000F0BEF80C210E2000F005
:10015000BAF80F2000F0CEF805210D2000F0B3F81A
:100160002021042000F0AFF8012000F0C3F810F0C7
:100170001F000828F8D1B7480121017201BD80B5E0
:1001800000F07DF901BD80B500F07CF901BDB149F9
:1001900008607047AF494860704780B5AD4902229A
:1001A0000A7210F12001C9B2082000F08CF8A948A9
:1001B0000321017201BD704780B5A6480D2101726F
:1001C000012000F097F80321022000F07CF80120C4
:1001D00000F090F810F01F000828F8D100F007FA9E
:1001E00000F045FA9B480121017201BD80B5994A92
:1001F00004231372C9B200F097F8964805210172E2
:1002000001BD80B593480621017200F0F7F900F0B6
:1002100027FA0921022000F056F8012000F06AF8C0
:1002200010F01F000928F8D18A480721017201BD8A
:1002300080B58848082101728748006850F00200A4
:10024000854908608448006830F0020082490860EF
:1002500080480068002805D000F017F980B27D4979
:100260000968884701BD80B57A48092101720621D5
:10027000022000F028F800F0C1F900F0F1F90120A7
:1002800000F038F810F01F000628F8D171480A2154
:10029000017201BDF8B504000D0016001F00062014
:1002A00000F028F8C0B2C00907990870072000F0D4
:1002B00021F85B383870069B3200D2B2290020004A
:1002C00000F056F8F1BD00B585B050F0C0008DF8D3
:1002D0000C008DF80D1001200290012001900220E9
:1002E00000900DF10E030122022103A800F03CFA58
:1002F00005B000BD00B585B050F080008DF80C0051
:1003000000208DF80D0001200290012001900220B4
:1003100000900DF10E030122022103A800F024FA3F
:100320009DF80F0005B000BD30B5A5B004000D006C
:1003300060208DF80C008DF80D50002002900120F7
:1003400001908120009004AB0122022103A800F05B
:100350000BFA01200290002001908120009004AB54
:1003600001222900C9B2200000F0FEF925B030BDFD
:1003700070B5A4B004000D001E0020208DF8100000
:1003800000200290012001900320009003AB012285
:10039000022104A800F0E8F99DF80D0028702878E3
:1003A000C01E7D281BD200200290002001907D20DD
:1003B000009023000122297804A800F0D5F901203B
:1003C0000290002001900320009003AB0122032142
:1003D00004A800F0C9F99DF80E0030700BE0012070
:1003E0000290002001900320009003AB0122012124
:1003F00004A800F0B9F924B070BD10B500F045F8BC
:1004000004000F20FFF776FF41070ED511480B219E
:10041000017210480068002806D0200080B20D4903
:1004200009688847012012E0FEE700070ED5094859
:100430000C21017207484068002806D0200080B2D5
:10044000044949688847012001E0FEE7002010BD0B
:1004500000000000980000200C0C014010B504467C
:1004600010460A460146204600F010FA204610BD0C
:1004700080B50C2200211D48FFF7F0FF01BD1B498C
:100480000860704719494860704780B500F041FA2C
:10049000400080B202BD80B51448007AC0B2012885
:1004A0000ED002281FD111484068002806D000F065
:1004B00092FA0E4840688047012000E0002002BD0B
:1004C0000A48006800280DD000F03AFA002000F039
:1004D0002BFA00F035FA00F07EFA044800688047F5
:1004E0000120ECE7EAE7FEE700000000A40000209E
:1004F00080B50121102000F069FB0121042000F0EB
:1005000065FB41F22310ADF8000010208DF80300C8
:1005100003208DF8020000A93C4800F0B7FBE02062
:10052000ADF8000010208DF8030003208DF80200C4
:1005300000A9374800F0AAFB3648006850F02000B8
:10054000344908603448006850F08000324908603F
:100550003148006850F020002F4908602E4800689C
:1005600050F040002C4908602A48006850F0020012
:10057000284908602748006850F0010025490860B4
:1005800000F00BF800F010F800F015F800F01AF881
:1005900000F01FF800F02BF801BD1E48006830F095
:1005A00020001C49086070471B48006830F080003C
:1005B0001949086070471848006830F02000164953
:1005C000086070471448006830F040001249086025
:1005D00070471048006830F002000E49086070470C
:1005E0000C48006850F002000A490860704709484A
:1005F00000684008400007490860704705480068E7
:1006000050F00100034908607047000000100140ED
:10061000000801400C1001400C08014080B5012188
:10062000102000F0D3FA4FF44C60ADF80000102019
:100630008DF8030003208DF8020000A9164800F091
:1006400025FB01BD1548006850F0400013490860C3
:1006500070471248006830F0400010490860704749
:100660000E48006850F080000C49086070470B4845
:10067000006830F08000094908607047074800684A
:1006800050F480600549086070470448006830F401
:100690008060024908607047001001400C10014062
:1006A00000B587B0102200216B48FFF7D7FE01216B
:1006B0004FF4804000F09AFA0121082000F086FAF9
:1006C0004FF42040ADF8000018208DF803000320FF
:1006D0008DF8020000A9614800F0D8FA4FF480407C
:1006E000ADF8000004208DF8030003208DF802000F
:1006F00000A95A4800F0CAFA4FF48050ADF8000043
:1007000010208DF8030000A9544800F0BFFA5448A7
:10071000006850F48050524908600020ADF8040091
:100720004FF48270ADF806000020ADF808000020FC
:10073000ADF80A000020ADF80C004FF40070ADF8E1
:100740000E001020ADF810000020ADF812000720B8
:10075000ADF8140001A9434800F02CFB01214148E9
:1007600000F048FB07B000BD10B53B4C20603A4894
:1007700000240471384841713748827136488360DB
:1007800035490298087334490398487332490498EC
:10079000887331480121C1732F48407B01281AD149
:1007A0004FF480512D4800F0D8FA14E02D4800F0A5
:1007B00031FB29498968087027480068401C264990
:1007C000086025480079401C234908712248407977
:1007D000401E214948712048407900282FD01E48EA
:1007E0000068017889B21F4800F012FB01211D4802
:1007F00000F012FB0028F9D001211A4800F016FB86
:1008000015488079002803D00228CFD00BD3D3E736
:1008100011480079002805D1124800F0FBFA0E4972
:1008200089680870C8E70F4800F0F4FA0A49896837
:10083000087009488068401C07498860BCE7064882
:10084000807B012804D14FF48051044800F082FAE3
:1008500001480021C17310BD88000020000C014038
:100860000C0C014000380040FEE750F8041B61B159
:1008700050F8042BD30744BFA9F101039A180023B1
:1008800042F8043B091FFAD1EFE7704762F30F22E9
:1008900062F31F42401810F0030308D0C91A1FD397
:1008A000DB0748BF00F8012D28BF20F8022D1300F8
:1008B00030B414461546103928BF20E93C00FAD858
:1008C000490728BF20E90C0048BF40F8042D8900E3
:1008D00028BF20F8022D48BF00F8012D30BC70471A
:1008E000C91818BF00F8012DCB0728BF00F8012D4B
:1008F000704700001E48008850F010001C49088016
:1009000070471B4800884FF6EF710840184908806F
:10091000704700201749098808001749098889B2DB
:1009200080B250EA0140704710B50400FFF7E2FFC3
:10093000200C114908800F480480FFF7E2FF10BD2A
:100940000B4800888006FBD570470021084A1288B2
:1009500092B2024201D0012100E000210800C0B2A1
:1009600070470349098831EA00000149088070474F
:10097000042800401C2800401828004080B500F0E2
:1009800049F8102000F066FA022000F053FA002027
:1009900000F08DF84FF4806000F09DF84FF4A060F7
:1009A00000F08FF85FF46011002000F062F8012081
:1009B00000F06AF8392000F029F90028FAD0022066
:1009C00000F066F800F06EF80828FBD10121012044
:1009D00000F0FCF801BD80B50D48006890F01000F3
:1009E0000B490860012000F04FF8392000F00EF9A3
:1009F0000028FAD0022000F04BF800F053F8082845
:100A0000FBD10348006890F010000149086001BD67
:100A10000C100140DFF83802006850F00100DFF8E8
:100A200030120860DFF82C020068DFF82C12084052
:100A3000DFF820120860DFF818020068DFF81C12E7
:100A40000840DFF80C120860DFF80402006830F498
:100A50008020DFF8FC110860DFF8F801006830F44E
:100A6000FE00DFF8F0110860DFF8F40100210160FA
:100A700070470022774B1B681A0032F47C1208433F
:100A800002437448026070477649C0B208607047FC
:100A90000021704A126811008908890001436D48DD
:100AA000016070476B48006810F00C00704700212F
:100AB000684A1268110031F0F00101436548016095
:100AC00070470021634A1268110031F4E06101436C
:100AD00060480160704700215E4A1268110031F4DD
:100AE000605151EAC0015B480160704730B4002298
:100AF000002100230024574D2D6815F00C052A0015
:100B0000002A04D0042A05D0082A06D021E057493B
:100B1000016020E0554901601DE04E49096811F46B
:100B20007011890C891C4B4A126812F48033002B17
:100B300003D14F4A514301600AE0464A12689203CA
:100B400003D54B4A5143016002E0484A51430160DA
:100B500001E0464901603F49096811F0F0021209BD
:100B60004449545C0168E14041603A49096811F424
:100B7000E062120A3F49545C4168E14081603549B6
:100B8000096811F46052D20A3A49545C4168E14064
:100B9000C1603049096811F44042920B3649545CF7
:100BA000C168B1FBF4F1016130BC7047C9B20029E2
:100BB00005D03249096808433049086005E02F49EB
:100BC000096831EA00002D4908607047C9B2002960
:100BD00005D02B49096808432949086005E02849E0
:100BE000096831EA0000264908607047C9B2002947
:100BF00005D02449096808432249086005E02149D5
:100C0000096831EA00001F490860704710B40022EB
:100C100000230021C0B24409E4B22200012A02D11B
:100C20000B490B6806E0022A02D10F490B6801E06C
:100C300015490B68C0B210F01F0233FA02F0C0076A
:100C400001D5012100E000210800C0B210BC7047AE
:100C500000100240041002400000FFF8FFFFF6FE03
:100C600008100240600042422010024000127A0048
:100C700000093D005C1A0008781A000814100240B0
:100C8000181002401C10024024100240F0B4002250
:100C90000026002400250023002791F803C01CF043
:100CA0000F0C624691F803C05FEACC6C01D58B78DB
:100CB0001A430B781B0621D00368002406E0CD7888
:100CC000482D02D10125A5400561641C082C14D2D1
:100CD0000125A5400E882E40AE42F6D1A5000F2674
:100CE00016FA05F7BB4312FA05F52B43CD78282DEC
:100CF000E5D10125A5404561E7E703600B88FF2B9F
:100D000026DD4368002420E0012514F10806B540E3
:100D10000E882E40AE4217D1A5000F2616FA05F711
:100D2000BB4312FA05F52B43CD78282D04D10125BC
:100D300014F10806B5404561CD78482D04D1012550
:100D400014F10806B5400561641C082CDCD343602F
:100D5000F0BC704789B20161704789B24161704748
:100D600010B400220F2311F00304E4B2A400A34046
:100D70001A00C9B28B100E4C54F8233033EA020229
:100D8000C9B28B100A4C44F82320C9B28A10084B10
:100D900053F82220C0B211F00303DBB29B0098404D
:100DA0001043C9B28910024A42F8210010BC7047B2
:100DB0000800014010B4002203881A0012F44152C6
:100DC0000B884C8823438C882343CC8823430C898D
:100DD00023434C8923438C892343CC8923431A43DF
:100DE0000280828B4FF2FF731A408283098A01824C
:100DF00010BC7047C9B2002904D0018851F04001ED
:100E0000018004E001884FF6BF72114001807047F5
:100E1000818170478089704700220089084201D093
:100E2000012200E000221000C0B2704789B2C9431D
:100E300001817047DFF83C10096811F03801DFF8D4
:100E400034201160DFF82C1009680843DFF8241003
:100E500008607047DFF81C10096831F01001DFF8F6
:100E600014201160DFF80C1009680843DFF8041043
:100E7000086070470020024000B583B08522002141
:100E80007548FFF7EBFA00F0F9F80FF26110FFF781
:100E900076F90FF26510FFF776F90FF26910FFF798
:100EA00076F90FF27910FFF775F96B487F2180F81A
:100EB0008110002005E0C0B26749411899228A706C
:100EC000401C654991F88110C0B28842F3D30FF2FB
:100ED000651000F085F94FF6FF7000F087F9FFF715
:100EE0006AF90B20FFF759F9FFF7BDF95A480221BB
:100EF00041705948007850F004005749087056482E
:100F00000078002821D100F023F9F8E7C0B2524957
:100F1000411899228A70401C4F4991F88110C0B243
:100F20008842F3D34C4890F881104C48FFF75EF9A3
:100F3000FFF767F9FFF77CF9474801214170464800
:100F4000007810F0FB0044490870434800780028FE
:100F5000D5D041480078C00710D53F4840780128D7
:100F600004D0022804D1FFF76DFB01E0FFF786FBF8
:100F70003948007810F0FE0037490870364800788C
:100F8000800723D534484078012812D0022817D191
:100F900031487F2180F8811031480190314800901C
:100FA000314B7F2231492D48FFF774F9FFF751FB90
:100FB00006E0FFF758F9284802214170FFF765FB6A
:100FC0002548007810F0FD00234908702248007879
:100FD0004007BAD5204840780228B0D1FFF7ECF896
:100FE0001D487F2180F88110002095E72048007877
:100FF000401C1F49087070471D484078401C1C4920
:10100000487070471448007850F001001249087089
:1010100017488078401C1649887070470E48007841
:1010200050F002000C4908701148C078401C10496B
:10103000C870704780B50848007850F00400064931
:1010400008700B480079401C094908714FF6FF7081
:1010500000F0CCF801BD00000000002002000020DC
:1010600084000020830000208200002081000020F6
:10107000BC00002080B5FFF7FFFE02BDE0B5FFF722
:101080007DFC00F014F900F01BF900F04BF9012190
:101090000820FFF79BFD0220ADF8000010208DF81E
:1010A000030003208DF8020000A92748FFF7EEFD9A
:1010B0004FF40060ADF8000010208DF8030003200D
:1010C0008DF8020000A92048FFF7E0FD4FF4006111
:1010D0001D48FFF73FFE4FF48060ADF8000004208C
:1010E0008DF8030000A91848FFF7D0FD17480068E5
:1010F00050F48060154908600A210120FFF730FE96
:101100004FF4806000F091F94FF48060019000206E
:101110008DF8080008208DF8090001208DF80A00DC
:1011200001A800F02BF9FFF779FA00F08DF9FFF72D
:10113000B7FA00F01FF8FEF7FBFFFFF799F9FFF78A
:10114000D7F900F0A3F807BD000C01400C0C0140DA
:1011500080B50121012000F0D7F901215FF0C050D6
:10116000FFF744FD00211420FFF720FD00F0E0F917
:1011700001BD000000B587B0082200213648FFF706
:101180006DF901210120FFF731FD4FF6FF70ADF839
:10119000040040F2FF30ADF800000020ADF806007A
:1011A0000020ADF8020000A95FF0804000F0FEF9D9
:1011B0003020ADF80C000020ADF812000120ADF891
:1011C0000E000020ADF8140003A95FF0804000F08D
:1011D00008FA01215FF0804000F044FA07B000BD3A
:1011E00080B51D49086000F040F801BD70B50400ED
:1011F00001215FF0804000F035FA174886881648D4
:1012000080882518144885805FF0804000F048FAF7
:10121000B6B2801BA4B2844205DA02215FF080409E
:1012200000F03AFA10E0290089B25FF0804000F047
:1012300035FA02215FF0804000F03EFA01220221DF
:101240005FF0804000F01CFA70BD80B50248006875
:101250008047012002BD0000C400002080B50021AD
:101260005FF0006000F07FFA01BD80B51C208DF8B2
:10127000000002208DF8010001208DF802000120FD
:101280008DF8030000A800F022FA01BD80B52820E7
:101290008DF8000001208DF8010001208DF802007A
:1012A00001208DF8030000A800F011FA01BD80B5FF
:1012B000FFF7D4FF4FF4A06000F002FA01BD000078
:1012C00080B501213D20FFF781FC4FF6FF70ADF89E
:1012D000000000208DF8030000A92448FFF7D6FC89
:1012E0004FF6FF70ADF8000000208DF8030000A954
:1012F0001F48FFF7CBFC4FF6FF70ADF80000002051
:101300008DF8030000A91B48FFF7C0FC4FF6FF70E3
:10131000ADF8000000208DF8030000A91648FFF783
:10132000B5FC01BD80B501212020FFF74FFC042052
:10133000ADF8000003208DF8020010208DF80300A6
:1013400000A90D48FFF7A2FC01211020FFF73EFC89
:101350001020ADF8000003208DF8020010208DF859
:10136000030000A90348FFF791FC01BD00080140FC
:10137000000C014000100140001401408179002957
:1013800038D02C490968026891432A4A11602A49D9
:10139000096802689143284A11600179254A515829
:1013A000026811430279234B995024490968026865
:1013B0009143224A11602249096802689143204AF8
:1013C0001160417910290CD11C4909680268114348
:1013D0001A4A11601A4909680068084318490860E8
:1013E00010E04179134A5158026811434079114A7B
:1013F000115007E001790F4A515802689143007972
:101400000C4A11507047002100220A4B1B68034010
:101410001A000C4B1B68034203D0002A01D00121A3
:1014200000E000210800C0B270470649086070471C
:1014300000000000000401400404014008040140D1
:101440000C0401401404014000B585B00C220021B9
:101450002A48FFF703F829480021017227487E2116
:10146000417201214FF48040FFF7B0FB01210420BD
:10147000FFF7ACFB5FF4E13001900020ADF808000D
:101480000020ADF80A000020ADF80C000020ADF8F7
:1014900010000C20ADF80E0001A9194800F078F9F1
:1014A0000121174800F0C2F94FF40070ADF80000B8
:1014B00002208DF8020018208DF8030000A91148C1
:1014C000FFF7E4FB4FF48060ADF8000002208DF8D8
:1014D000020004208DF8030000A90A48FFF7D6FB9C
:1014E00005B000BD80B5054800688047002002BDFA
:1014F00080B5024840688047002002BDB00000204F
:101500000038014000080140C9B2002905D0074950
:10151000096808430549086005E00449096831EA9B
:10152000000002490860704700000000042004E049
:1015300030BF704720BF704740BF7047BFF36F8F09
:101540007047BFF34F8F7047BFF35F8F704701DF66
:101550007047EFF31480704780F31488BFF36F8FE8
:101560007047EFF30980704780F309887047EFF305
:101570000880704780F30888704762B6704772B67B
:101580007047EFF31080704761B6704771B67047CF
:10159000EFF31380704780F311887047EFF31280E8
:1015A000704740BA704700BA7047000010B4028814
:1015B00012F08F0202800288CB884C8823431A43A2
:1015C00002808A8882850A88028501228282234AD3
:1015D000904202D0224A904201D1097A018610BC81
:1015E000704770B4002300240022058C4FF6FE766D
:1015F00035400584058C2C0085882A00058B2B003E
:101600004FF68F752B400D882B434FF6FD752C4000
:101610000D892C434D882C43CD8885860F4DA842DB
:1016200002D00F4DA84213D14FF6F7752C404D89CB
:101630002C434FF6FB752C408D882C4347F6FF65F5
:101640002A4047F6FF552A408D892A43C9890A4313
:1016500082800383048470BC70470000002C01402A
:1016600000340140C9B2002904D0018851F00101C1
:10167000018004E0018840F2FE3211400180704791
:10168000D2B2002A03D082891143818103E082898A
:1016900032EA0101818170478182704781867047FB
:1016A000808C70470022008A084201D0012200E0AD
:1016B00000221000C0B2704789B2C943018270474E
:1016C000DFF8C0100843DFF8B8100860704770B446
:1016D00000210022002300240F25C678002E35D0DB
:1016E0002749096811F4E061D1F5E061090AD1F1F7
:1016F0000404CD404178A14082782A401143090179
:10170000027812F00302D2B2D20091400278921015
:10171000194B53F82220FF23047814F00304E4B299
:10172000E400A3409A4319400A4301788910124B00
:1017300043F8212001784911134A0123007810F061
:101740001F0013FA00F042F821000AE00178491165
:10175000084A0123007810F01F0013FA00F042F845
:10176000210070BC7047094A1140084303490860D2
:101770007047000080E100E000E400E008ED00E0D8
:101780000CED00E00000FA0500E100E080FFFF1F23
:101790002DE9F04385B004000D000020002600274D
:1017A0005FF000085FF00009A146218A08004CF6AE
:1017B000FF710840E98808432082A0894EF6F311A2
:1017C0000840A9882A8911436A8911430843A081E6
:1017D000A08A4FF6FF410840A9890843A08200A8CB
:1017E000FFF784F91048814501D1039E00E0029E75
:1017F000192000FB06F029688900B0FBF1F764208E
:10180000B7FBF0F000010109642202FB11785FEAE6
:10181000081132316422B1FBF2F111F00F010843DB
:10182000208105B0BDE8F08300380140C9B200292D
:1018300004D0818951F40051818104E081894DF601
:10184000FF7211408181704700220088084201D058
:10185000012200E000221000C0B2704789B2C943E3
:10186000018070477047FEE7FEE7FEE7FEE770473E
:1018700070477047704770477047704780B50220C7
:10188000FFF763F8002804D00220FFF76AF8FFF79B
:1018900057F801BD704770477047704770477047F1
:1018A0007047704770477047704770477047704780
:1018B0007047704770477047704770477047704770
:1018C0007047704780B5FEF78BFE02215FF08040C5
:1018D000FFF7E8FE002806D002215FF08040FFF706
:1018E000EBFEFFF7B2FCFEF774FE01BD80B50221EE
:1018F0001B48FFF7D7FE002803D002211848FFF746
:10190000DBFE01BD7047704770477047704780B578
:10191000FEF766FE01211348FFF77EFA002801D08A
:10192000FEF7A2FFFEF755FE01BD704780B5FEF73A
:1019300057FE20210C48FFF787FF002805D0202103
:101940000948FFF78BFFFFF7D3FD80210648FFF71B
:101950007BFF002801D0FFF7C5FDFEF73AFE01BD71
:1019600000040040003001400038014070477047DB
:1019700080B5FEF735FE4FF48060FFF744FD002888
:1019800007D04FF48060FFF750FDFFF724F8FEF713
:1019900034FDFEF71EFE01BD80B5FEF721FE5FF4AB
:1019A0000030FFF730FD002805D05FF40030FFF76E
:1019B0003CFDFEF770FDFEF70CFE01BD7047704761
:1019C000704770477047704770477047704770475F
:1019D000704770477047704770477047704770474F
:1019E00010B5074979441831064C7C44163404E09C
:1019F0000A68081D511888470146A142F8D110BD58
:101A0000080000001400000063EEFFFFCC0000009F
:101A1000000000200000000000F00BF8002801D0BA
:101A2000FFF7DEFF0020C046C046FFF723FB00F0B3
:101A300002F80120704700F001B800000746384660
:101A400000F002F8FBE7000080B5C046C046024A3D
:101A500011001820ABBEFBE72600020000000000CA
:101A6000010203040102030406070809C046C04638
:0C1A7000C046C046FFF7D0FF0204060885
:0400000508001A6D68
:00000001FF
