:020000040800F2
:100000004004002049170008450900084709000876
:10001000490900084B0900084D09000800000000CC
:10002000000000000000000000000000510900086E
:100030004F09000800000000530900085509000896
:1000400057090008590900085B0900085D09000804
:100050007509000877090008790900087B0900087C
:100060007D0900087F09000881090008830900084C
:100070008509000887090008890900088B0900081C
:100080008D0900088F0900089109000893090008EC
:100090009509000897090008990900089B090008BC
:1000A0009D0900089F090008A1090008A30900088C
:1000B000A5090008CD090008E5090008E7090008BE
:1000C000E9090008EB090008ED090008EF0900083C
:1000D0000B0A00080D0A00084D0A00084F0A000824
:1000E000510A0008790A00089D0A00089F0A0008C2
:1000F000A10A0008A30A0008A50A0008A70A000828
:10010000A90A0008AB0A0008AD0A0008AF0A0008F7
:10011000B10A0008B30A0008B50A0008B70A0008C7
:10012000B90A0008BB0A0008BD0A0008BF0A000897
:10013000DFF81802006850F00100DFF810120860C4
:10014000DFF80C020068DFF80C120840DFF800123C
:100150000860DFF8F8010068DFF8FC110840DFF8FC
:10016000EC110860DFF8E401006830F48020DFF86B
:10017000DC110860DFF8D801006830F4FE00DFF819
:10018000D0110860DFF8D40100210160704700221F
:100190006F4B1B681A0032F47C12084302436C4810
:1001A000026070476E49C0B2086070470021684A1B
:1001B0001268110089088900014365480160704791
:1001C0006348006810F00C0070470021604A126814
:1001D000110031F0F00101435D48016070470021DA
:1001E0005B4A1268110031F4E06101435848016034
:1001F00070470021564A1268110031F4605151EAEB
:10020000C00153480160704730B400220021002330
:1002100000244F4D2D6815F00C052A00002A04D04B
:10022000042A05D0082A06D021E04F49016020E0C9
:100230004D4901601DE04649096811F47011890CAF
:10024000891C434A126812F48033002B03D1474AB9
:10025000514301600AE03E4A1268920303D5434AC3
:100260005143016002E0404A5143016001E03E49D0
:1002700001603749096811F0F00212093C49545CE9
:100280000168E14041603249096811F4E062120AF4
:100290003749545C4168E14081602D49096811F497
:1002A0006052D20A3249545C4168E140C160284939
:1002B000096811F44042920B2E49545CC168B1FBAD
:1002C000F4F1016130BC7047C9B2002905D02A4958
:1002D000096808432849086005E02749096831EAA8
:1002E0000000254908607047C9B2002905D023499C
:1002F000096808432149086005E02049096831EA96
:1003000000001E490860704710B40022002300213D
:10031000C0B24409E4B22200012A02D10B490B68A1
:1003200006E0022A02D10F490B6801E014490B686C
:10033000C0B210F01F0233FA02F0C00701D501214C
:1003400000E000210800C0B210BC7047001002405D
:10035000041002400000FFF8FFFFF6FE0810024004
:10036000600042422010024000127A0000093D0065
:100370003817000854170008181002401C100240DB
:100380002410024000B587B0102200216B4800F015
:10039000DEF801214FF48040FFF7A6FF012108207D
:1003A000FFF792FF4FF42040ADF8000018208DF8C1
:1003B000030003208DF8020000A9614800F0E2F874
:1003C0004FF48040ADF8000004208DF803000320B6
:1003D0008DF8020000A95A4800F0D4F84FF480507C
:1003E000ADF8000010208DF8030000A9544800F07B
:1003F000C9F85448006850F4805052490860002001
:10040000ADF804004FF48270ADF806000020ADF89E
:1004100008000020ADF80A000020ADF80C004FF4F1
:100420000070ADF80E001020ADF810000020ADF8FF
:1004300012000720ADF8140001A9434800F036F976
:100440000121414800F052F907B000BD10B53B4C06
:1004500020603A480024047138484171374882715D
:1004600036488360354902980873344903984873C5
:1004700032490498887331480121C1732F48407B69
:1004800001281AD14FF480512D4800F0E2F814E011
:100490002D4800F03BF92949896808702748006811
:1004A000401C2649086025480079401C23490871F2
:1004B00022484079401E214948712048407900284F
:1004C0002FD01E480068017889B21F4800F01CF93F
:1004D00001211D4800F01CF90028F9D001211A481B
:1004E00000F020F915488079002803D00228CFD0E9
:1004F0000BD3D3E711480079002805D1124800F04A
:1005000005F90E4989680870C8E70F4800F0FEF841
:100510000A498968087009488068401C0749886052
:10052000BCE70648807B012804D14FF48051044881
:1005300000F08CF801480021C17310BD00000020BC
:10054000000C01400C0C014000380040FEE710B5E3
:10055000044610460A460146204600F0E7F82046C9
:1005600010BD50F8041B61B150F8042BD30744BFF1
:10057000A9F101039A18002342F8043B091FFAD19C
:10058000EFE77047F0B40022002600240025002386
:10059000002791F803C01CF00F0C624691F803C0CD
:1005A0005FEACC6C01D58B781A430B781B0621D0FF
:1005B0000368002406E0CD78482D02D10125A5402E
:1005C0000561641C082C14D20125A5400E882E401C
:1005D000AE42F6D1A5000F2616FA05F7BB4312FA74
:1005E00005F52B43CD78282DE5D10125A5404561A2
:1005F000E7E703600B88FF2B26DD4368002420E03B
:10060000012514F10806B5400E882E40AE4217D1E0
:10061000A5000F2616FA05F7BB4312FA05F52B4382
:10062000CD78282D04D1012514F10806B540456187
:10063000CD78482D04D1012514F10806B540056197
:10064000641C082CDCD34360F0BC704789B20161A4
:10065000704789B24161704710B400220F2311F036
:100660000304E4B2A400A3401A00C9B28B100E4CDC
:1006700054F8233033EA0202C9B28B100A4C44F812
:100680002320C9B28A10084B53F82220C0B211F0BF
:100690000303DBB29B0098401043C9B28910024AA1
:1006A00042F8210010BC70470800014010B400223D
:1006B00003881A0012F441520B884C8823438C881B
:1006C0002343CC8823430C8923434C8923438C89BF
:1006D0002343CC8923431A430280828B4FF2FF735A
:1006E0001A408283098A018210BC7047C9B200296E
:1006F00004D0018851F04001018004E001884FF6E8
:10070000BF721140018070478181704780897047B6
:1007100000220089084201D0012200E000221000DE
:10072000C0B2704789B2C9430181704762F30F229A
:1007300062F31F42401810F0030308D0C91A1FD3F8
:10074000DB0748BF00F8012D28BF20F8022D130059
:1007500030B414461546103928BF20E93C00FAD8B9
:10076000490728BF20E90C0048BF40F8042D890044
:1007700028BF20F8022D48BF00F8012D30BC70477B
:10078000C91818BF00F8012DCB0728BF00F8012DAC
:100790007047000080B501211020FFF795FD4FF450
:1007A0004C60ADF8000010208DF8030003208DF898
:1007B000020000A96048FFF7E5FE01BD5F48006840
:1007C00050F040005D49086070475C48006830F0B8
:1007D00040005A49086070475848006890F040004F
:1007E00056490860704710B5002404E0FFF7F4FF95
:1007F00000F09BF8641C102CF8DB10BD4F4800681B
:1008000050F080004D49086070474C48006830F057
:1008100080004A49086070474848006890F08000AE
:100820004649086070474548006850F48060434975
:10083000086070474148006830F480603F490860B4
:1008400070473E48006890F480603C4908607047FB
:100850003A48006850F400603849086070473748EB
:10086000006830F40060354908607047334800681C
:1008700090F400603149086070473048006850F4D7
:100880004C602E49086070472C48006830F44C607A
:100890002A49086070472948006890F44C6027494D
:1008A0000860704780B52548006890F040002349F3
:1008B000086000F03AF82148006890F040001F49B5
:1008C000086000F032F81D48006890F080001B4975
:1008D000086000F02AF81948006890F08000174975
:1008E000086000F022F81548006890F48060134911
:1008F000086000F01AF81148006890F480600F4911
:10090000086000F012F80D48006890F400600B4990
:10091000086000F00AF80948006890F40060074990
:10092000086000F002F801BD7047002000E0401CA4
:1009300003498842FBD37047001001400C1001406E
:10094000F8FF07007047FEE7FEE7FEE7FEE77047A7
:1009500070477047704770477047704780B50220F6
:1009600000F0D9F8002804D0022000F0E0F800F0F0
:10097000CDF801BD704770477047704770477047AA
:1009800070477047704770477047704770477047AF
:10099000704770477047704770477047704770479F
:1009A0007047704780B500F047F902215FF0804042
:1009B00000F0C2F9002806D002215FF0804000F06C
:1009C000C5F900F0FDF900F030F901BD80B5022154
:1009D0001B4800F0B1F9002803D00221184800F0AC
:1009E000B5F901BD7047704770477047704780B5D3
:1009F00000F022F901211348FFF78AFE002801D0F8
:100A0000FFF7A4FD00F011F901BD704780B500F0BB
:100A100013F920210C4800F037FA002805D02021D6
:100A2000094800F03BFA00F091FA8021064800F0F6
:100A30002BFA002801D000F083FA00F0F6F801BD8F
:100A4000000400400030014000380140704770470A
:100A500080B500F0F1F84FF4806000F0C8FA00288B
:100A600007D04FF4806000F0D4FA00F00EFB00F0E5
:100A700083FB00F0DAF801BD80B500F0DDF85FF42B
:100A8000003000F0B4FA002805D05FF4003000F028
:100A9000C0FA00F0ACFB00F0C8F801BD7047704729
:100AA000704770477047704770477047704770478E
:100AB000704770477047704770477047704770477E
:100AC0001E48008850F010001C49088070471B48E1
:100AD00000884FF6EF7108401849088070470020E1
:100AE0001749098808001749098889B280B250EA75
:100AF0000140704710B50400FFF7E2FF200C1149D8
:100B000008800F480480FFF7E2FF10BD0B48008803
:100B10008006FBD570470021084A128892B2024233
:100B200001D0012100E000210800C0B27047034954
:100B3000098831EA00000149088070470428004014
:100B40001C2800401828004080B501211020FFF724
:100B5000BBFB01210420FFF7B7FB41F22310ADF8E6
:100B6000000010208DF8030003208DF8020000A97A
:100B70003848FFF707FDE020ADF8000010208DF8A1
:100B8000030003208DF8020000A93348FFF7FAFCA8
:100B90003248006850F02000304908603048006852
:100BA00050F080002E4908602D48006850F0200069
:100BB0002B4908602A48006850F040002849086026
:100BC0002648006850F00200244908602348006865
:100BD00050F001002149086000F00BF800F010F817
:100BE00000F015F800F01AF800F01FF800F02BF8EC
:100BF00001BD1A48006830F02000184908607047AD
:100C00001748006830F080001549086070471448A4
:100C1000006830F0200012490860704710480068F2
:100C200030F040000E49086070470C48006830F012
:100C300002000A49086070470848006850F0020046
:100C400006490860704705480068400840000349AD
:100C50000860704700100140000801400C1001407E
:100C60000C08014010B4028812F08F020280028842
:100C7000CB884C8823431A4302808A8882850A885D
:100C8000028501228282234A904202D0224A904267
:100C900001D1097A018610BC704770B4002300248A
:100CA0000022058C4FF6FE7635400584058C2C001D
:100CB00085882A00058B2B004FF68F752B400D88F9
:100CC0002B434FF6FD752C400D892C434D882C434A
:100CD000CD8885860F4DA84202D00F4DA84213D172
:100CE0004FF6F7752C404D892C434FF6FB752C4081
:100CF0008D882C4347F6FF652A4047F6FF552A406A
:100D00008D892A43C9890A4382800383048470BC85
:100D100070470000002C014000340140C9B2002996
:100D200004D0018851F00101018004E0018840F203
:100D3000FE321140018070470022008A084201D033
:100D4000012200E000221000C0B2704789B2C943FE
:100D50000182704700B587B0082200211B48FFF7C9
:100D6000F6FB01210120FFF7BFFA4FF6FF70ADF847
:100D7000040040F2FF30ADF800000020ADF806009E
:100D80000020ADF8020000A95FF08040FFF76AFF85
:100D90003020ADF80C000020ADF812000120ADF8B5
:100DA0000E000020ADF8140003A95FF08040FFF7AB
:100DB00074FF01215FF08040FFF7B0FF07B000BD76
:100DC00080B5024800688047012002BD3400002041
:100DD0002DE9F04385B004000D0000200026002717
:100DE0005FF000085FF00009A146218A08004CF678
:100DF000FF710840E98808432082A0894EF6F3116C
:100E00000840A9882A8911436A8911430843A081AF
:100E1000A08A4FF6FF410840A9890843A08200A894
:100E2000FFF7F2F91048814501D1039E00E0029ED0
:100E3000192000FB06F029688900B0FBF1F7642057
:100E4000B7FBF0F000010109642202FB11785FEAB0
:100E5000081132316422B1FBF2F111F00F010843A5
:100E6000208105B0BDE8F08300380140C9B20029F7
:100E700004D0818951F40051818104E081894DF6CB
:100E8000FF7211408181704700220088084201D022
:100E9000012200E000221000C0B2704789B2C943AD
:100EA0000180704700B585B00C2200212A48FFF769
:100EB0004EFB29480021017227487E214172012101
:100EC0004FF48040FFF700FA01210420FFF7FCF9FE
:100ED0005FF4E13001900020ADF808000020ADF88B
:100EE0000A000020ADF80C000020ADF810000C2026
:100EF000ADF80E0001A91948FFF76AFF0121174854
:100F0000FFF7B4FF4FF40070ADF8000002208DF839
:100F1000020018208DF8030000A91148FFF732FBEA
:100F20004FF48060ADF8000002208DF8020004202C
:100F30008DF8030000A90A48FFF724FB05B000BDA7
:100F400080B5054800688047002002BD80B5024892
:100F500040688047002002BD280000200038014082
:100F6000000801408179002938D02C4909680268BD
:100F700091432A4A11602A49096802689143284A24
:100F800011600179254A5158026811430279234BB7
:100F900099502449096802689143224A1160224904
:100FA000096802689143204A1160417910290CD1E7
:100FB0001C490968026811431A4A11601A490968F4
:100FC000006808431849086010E04179134A5158F5
:100FD000026811434079114A115007E001790F4A24
:100FE00051580268914300790C4A11507047002112
:100FF00000220A4B1B6803401A000C4B1B6803427B
:1010000003D0002A01D0012100E000210800C0B275
:101010007047064908607047000000000004014066
:1010200004040140080401400C0401401404014080
:1010300080B5FFF77DF8102000F016F9022000F0CF
:1010400003F90020FFF7C1F84FF48060FFF7D1F8F3
:101050004FF4A060FFF7C3F85FF460110020FFF7C2
:1010600096F80120FFF79EF83920FFF74DF9002888
:10107000FAD00220FFF79AF8FFF7A2F80828FBD170
:1010800001210120FFF720F901BD80B50D4800685E
:1010900090F010000B4908600120FFF783F8392019
:1010A000FFF732F90028FAD00220FFF77FF8FFF7A8
:1010B00087F80828FBD10348006890F01000014928
:1010C000086001BD0C10014080B50C220021404891
:1010D000FFF73DFA3E48002101720321022000F093
:1010E0001AF80C210E2000F016F80F2000F02AF854
:1010F00005210D2000F00FF82021042000F00BF84E
:10110000012000F01FF810F01F000828F8D1304827
:101110000121017201BD00B585B050F0C0008DF80D
:101120000C008DF80D10012002900120019002208A
:1011300000900DF10E030122022103A8FFF786F9AA
:1011400005B000BD00B585B050F080008DF80C00F2
:1011500000208DF80D000120029001200190022056
:1011600000900DF10E030122022103A8FFF76EF992
:101170009DF80F0005B000BD10B500F032F8040076
:101180000F20FFF7DFFF41070ED511480B21017239
:101190000F480068002806D0200080B20C4909687A
:1011A0008847012012E0FEE700070ED508480C2111
:1011B000017207484068002806D0200080B2044928
:1011C00049688847012001E0FEE7002010BD0000CB
:1011D0001000002080B50C2200211A48FFF7B7F953
:1011E00001BD80B5FFF77BFC400080B202BD80B539
:1011F0001448007AC0B201280ED002281FD111482D
:101200004068002806D0FFF740FF0E48406880473E
:10121000012000E0002002BD0A48006800280DD02F
:10122000FFF774FC0020FFF765FCFFF76FFCFFF78A
:101230002CFF0448006880470120ECE7EAE7FEE75E
:10124000000000001C000020DFF83C10096811F0CD
:101250003801DFF834201160DFF82C1009680843EA
:10126000DFF8241008607047DFF81C10096831F0BF
:101270001001DFF814201160DFF80C100968084332
:10128000DFF80410086070470020024010B500F03D
:101290007DF8FFF793FA00F064F8FFF796FA00F094
:1012A00060F8FFF799FA00F05CF8FFF79CFA00F09D
:1012B00058F8FFF7A3FA00F054F8FFF7A6FA00F089
:1012C00050F8FFF7A9FA00F04CF8FFF7ACFA00F07D
:1012D00048F8FFF7AFFA00F044F8FFF7B2FA00F071
:1012E00040F8FFF7B5FA00F03CF8FFF7B8FA00F065
:1012F00038F8FFF7BBFA00F034F8FFF7C5FA00F052
:1013000030F8FFF7BAFA00F02CF8FFF7BDFA00F05A
:1013100028F8FFF7C0FA00F024F8FFF7B5FA00F05C
:1013200020F8002404E0FFF7FFFA00F01AF8641C2C
:10133000E4B2092CF7DBFFF7A7FA00F012F8FFF789
:101340003DFA00F00EF8002404E0FFF7ABFA00F0DD
:1013500008F8641CE4B2092CF7DB00F081F80020E7
:1013600010BD81B04FF6FF70ADF8000004E0BDF88D
:101370000000401EADF80000BDF800000028F6D1C6
:1013800001B0704780B5FFF781FF02BDE0B5FFF700
:101390004FFE00F081F800F087F800F0B7F8012167
:1013A0000820FEF791FF0220ADF8000010208DF814
:1013B000030003208DF8020000A92748FFF7E2F898
:1013C0004FF40060ADF8000010208DF803000320FA
:1013D0008DF8020000A92048FFF7D4F84FF400610F
:1013E0001D48FFF733F94FF48060ADF8000004208A
:1013F0008DF8030000A91848FFF7C4F817480068E3
:1014000050F48060154908600A210120FFF724F993
:101410004FF48060FFF7FDFD4FF4806001900020E5
:101420008DF8080008208DF8090001208DF80A00C9
:1014300001A8FFF797FDFFF7ADF9FFF733FDFEF7C2
:10144000A1FFFFF787FCFFF73FFEFFF7C3FEFFF7A3
:101450007BFB00F010F807BD000C01400C0C0140B4
:1014600080B500F0D8F801BD80B500215FF00060C4
:1014700000F0CBF801BD80B528208DF800000120D8
:101480008DF8010001208DF8020001208DF8030085
:1014900000A800F06EF801BD80B5FFF7E5FF4FF43E
:1014A000A06000F05FF801BD80B501213D20FEF78E
:1014B0000BFF4FF6FF70ADF8000000208DF8030021
:1014C00000A92448FFF75EF84FF6FF70ADF8000062
:1014D00000208DF8030000A91F48FFF753F84FF6CE
:1014E000FF70ADF8000000208DF8030000A91B4834
:1014F000FFF748F84FF6FF70ADF8000000208DF8B8
:10150000030000A91648FFF73DF801BD80B5012191
:101510002020FEF7D9FE0420ADF8000003208DF84E
:10152000020010208DF8030000A90D48FFF72AF8EB
:1015300001211020FEF7C8FE1020ADF800000320A6
:101540008DF8020010208DF8030000A90348FFF772
:1015500019F801BD00080140000C014000100140D5
:1015600000140140DFF8C8100843DFF8C01008601D
:10157000704770B400210022002300240F25C67894
:10158000002E35D02949096811F4E061D1F5E061F8
:10159000090AD1F10404CD404178A14082782A4063
:1015A00011430901027812F00302D2B2D200914035
:1015B000027892101B4B53F82220FF23047814F07A
:1015C0000304E4B2E400A3409A4319400A430178BB
:1015D0008910144B43F8212001784911154A012341
:1015E000007810F01F0013FA00F042F821000AE022
:1015F000017849110A4A0123007810F01F0013FAFC
:1016000000F042F8210070BC70470B4A11400843BB
:1016100005490860704705480849016070470000A7
:1016200080E100E000E400E008ED00E00CED00E007
:101630000000FA0500E100E080FFFF1F0400FA054A
:1016400030BF704720BF704740BF7047BFF36F8FF8
:101650007047BFF34F8F7047BFF35F8F704701DF55
:101660007047EFF31480704780F31488BFF36F8FD7
:101670007047EFF30980704780F309887047EFF3F4
:101680000880704780F30888704762B6704772B66A
:101690007047EFF31080704761B6704771B67047BE
:1016A000EFF31380704780F311887047EFF31280D7
:1016B000704740BA704700BA7047000010B507493C
:1016C00079441831064C7C44163404E00A68081D3D
:1016D000511888470146A142F8D110BD080000000A
:1016E000140000007FEEFFFF3C000000000000201F
:1016F0000000000000F00BF8002801D0FFF7DEFF2B
:101700000020C046C046FFF73DFE00F002F8012071
:10171000704700F001B800000746384600F002F8B4
:10172000FBE7000080B5C046C046024A1100182001
:10173000ABBEFBE72600020000000000010203042C
:101740000102030406070809C046C046C046C04659
:08175000FFF7D0FF02040608B8
:04000005080017498F
:00000001FF
